:020000020000FC
:1000000000C00FEF07B905E005BD0FEF0AB900E02A
:1000100004B90FEF05B9F1E0E0E00FE3019306E06A
:1000200001930BE501930FE4019306E601930DE6BE
:1000300001930DE7019307E001930FE701930FE6AA
:10004000019307E701930CE7019309E301930EE5A0
:10005000019309E7019301E70193F1E0E0E00081FA
:100060000BB940E0772734D073957A3019F47727AD
:1000700013951F7008B10071612F6F70062B08B9BE
:1000800019D001D0F0CF1A9906C02FD043954F70E8
:100090000AD026D008951B99089527D04A954F700D
:1000A00002D01ED00895F1E0E0E0042FE00F0081BF
:1000B0000BB90895141759F4112750FF01C004C05B
:1000C000459A01E0502F08954598552708950895C1
:1000D0002DE0A89BFECF01E005BB2A95D1F708953E
:1000E0001A9BFECF1B9BFCCF08952FEF2A95203043
:0C00F000E9F72FEF2A952030E9F708957A
:00000001FF
