:020000020000FC
:1000000000C008E00EBF0FEF0DBF00E304B905B953
:100010000FEF0AB9F0E0E0E00EEB01930CE0019382
:1000200006E701930EE501930CEC01930AED0193B1
:100030000AEF01930EE001930EEF01930EED019391
:100040000EEE019308EF019302EB01930CE701938D
:1000500002EF019302EE019311273FEF4FEF1ED005
:1000600023B1522F5095507211F035FD0AD0522F06
:100070005095507111F044FD0AD0322F422F14D008
:10008000EFCF1395103109F4112708D008951123EB
:1000900011F41FE003C01A9501D00895F0E0E0E0EC
:1000A000E10F00810BB9089582E398EC9A95F1F77E
:0600B0008A95D9F70895BE
:00000001FF
